{
  "contractName": "Utility",
  "abi": [
    {
      "inputs": [
        {
          "internalType": "address[]",
          "name": "_tokenAddress",
          "type": "address[]"
        },
        {
          "internalType": "address",
          "name": "_addressToQuery",
          "type": "address"
        }
      ],
      "name": "getBalances",
      "outputs": [
        {
          "components": [
            {
              "internalType": "address",
              "name": "token",
              "type": "address"
            },
            {
              "internalType": "uint256",
              "name": "balance",
              "type": "uint256"
            }
          ],
          "internalType": "struct Utility.Balance[]",
          "name": "",
          "type": "tuple[]"
        }
      ],
      "stateMutability": "nonpayable",
      "type": "function"
    }
  ],
  "bytecode": "0x608060405234801561001057600080fd5b506107a3806100206000396000f3fe608060405234801561001057600080fd5b506004361061002b5760003560e01c8063d1c0702814610030575b600080fd5b61004a60048036038101906100459190610404565b610060565b604051610057919061056e565b60405180910390f35b606060005b835181101561025357610076610314565b8482815181106100af577f4e487b7100000000000000000000000000000000000000000000000000000000600052603260045260246000fd5b6020026020010151816000019073ffffffffffffffffffffffffffffffffffffffff16908173ffffffffffffffffffffffffffffffffffffffff1681525050848281518110610127577f4e487b7100000000000000000000000000000000000000000000000000000000600052603260045260246000fd5b602002602001015173ffffffffffffffffffffffffffffffffffffffff166370a08231856040518263ffffffff1660e01b81526004016101679190610553565b60206040518083038186803b15801561017f57600080fd5b505afa158015610193573d6000803e3d6000fd5b505050506040513d601f19601f820116820180604052508101906101b79190610458565b816020018181525050600081908060018154018082558091505060019003906000526020600020906002020160009091909190915060008201518160000160006101000a81548173ffffffffffffffffffffffffffffffffffffffff021916908373ffffffffffffffffffffffffffffffffffffffff16021790555060208201518160010155505050808061024b90610687565b915050610065565b506000805480602002602001604051908101604052809291908181526020016000905b8282101561030857838290600052602060002090600202016040518060400160405290816000820160009054906101000a900473ffffffffffffffffffffffffffffffffffffffff1673ffffffffffffffffffffffffffffffffffffffff1673ffffffffffffffffffffffffffffffffffffffff16815260200160018201548152505081526020019060010190610276565b50505050905092915050565b6040518060400160405280600073ffffffffffffffffffffffffffffffffffffffff168152602001600081525090565b6000610357610352846105b5565b610590565b9050808382526020820190508285602086028201111561037657600080fd5b60005b858110156103a6578161038c88826103b0565b845260208401935060208301925050600181019050610379565b5050509392505050565b6000813590506103bf8161073f565b92915050565b600082601f8301126103d657600080fd5b81356103e6848260208601610344565b91505092915050565b6000815190506103fe81610756565b92915050565b6000806040838503121561041757600080fd5b600083013567ffffffffffffffff81111561043157600080fd5b61043d858286016103c5565b925050602061044e858286016103b0565b9150509250929050565b60006020828403121561046a57600080fd5b6000610478848285016103ef565b91505092915050565b600061048d8383610515565b60408301905092915050565b6104a28161061a565b82525050565b6104b18161061a565b82525050565b60006104c2826105f1565b6104cc8185610609565b93506104d7836105e1565b8060005b838110156105085781516104ef8882610481565b97506104fa836105fc565b9250506001810190506104db565b5085935050505092915050565b60408201600082015161052b6000850182610499565b50602082015161053e6020850182610544565b50505050565b61054d8161064c565b82525050565b600060208201905061056860008301846104a8565b92915050565b6000602082019050818103600083015261058881846104b7565b905092915050565b600061059a6105ab565b90506105a68282610656565b919050565b6000604051905090565b600067ffffffffffffffff8211156105d0576105cf6106ff565b5b602082029050602081019050919050565b6000819050602082019050919050565b600081519050919050565b6000602082019050919050565b600082825260208201905092915050565b60006106258261062c565b9050919050565b600073ffffffffffffffffffffffffffffffffffffffff82169050919050565b6000819050919050565b61065f8261072e565b810181811067ffffffffffffffff8211171561067e5761067d6106ff565b5b80604052505050565b60006106928261064c565b91507fffffffffffffffffffffffffffffffffffffffffffffffffffffffffffffffff8214156106c5576106c46106d0565b5b600182019050919050565b7f4e487b7100000000000000000000000000000000000000000000000000000000600052601160045260246000fd5b7f4e487b7100000000000000000000000000000000000000000000000000000000600052604160045260246000fd5b6000601f19601f8301169050919050565b6107488161061a565b811461075357600080fd5b50565b61075f8161064c565b811461076a57600080fd5b5056fea2646970667358221220ef01c94433160745d73e57bd803218871b3dabde71c7d7273747432b65ef58ca64736f6c63430008030033",
  "immutableReferences": {},
  "source": "//SPDX-License-Identifier: Unlicense\npragma solidity ^0.8.3;\n\ninterface ERC20Interface {\n    function balanceOf(address whom) view external returns (uint);\n}\n\ncontract Utility {\n    struct Balance {\n        address token;\n        uint balance;\n    }\n    Balance[] private _balances;\n    \n   function getBalances(address[] memory _tokenAddress, address _addressToQuery) public returns (Balance[] memory) {\n        for (uint i = 0; i < _tokenAddress.length; i++) {\n            Balance memory b;\n            b.token = _tokenAddress[i];\n            b.balance = ERC20Interface(_tokenAddress[i]).balanceOf(_addressToQuery);\n            _balances.push(b);\n        }\n        return _balances;\n    }\n}",
  "sourcePath": "/var/www/code-challenge/problem-05/contracts/Utility.sol",
  "compiler": {
    "name": "solc",
    "version": "0.8.3+commit.8d00100c.Emscripten.clang"
  },
  "schemaVersion": "3.4.3",
  "updatedAt": "2021-10-19T02:27:55.859Z",
  "networkType": "ethereum",
  "devdoc": {
    "kind": "dev",
    "methods": {},
    "version": 1
  },
  "userdoc": {
    "kind": "user",
    "methods": {},
    "version": 1
  }
}